{
  "contractName": "BookMarketplace",
  "abi": [
    {
      "inputs": [],
      "stateMutability": "nonpayable",
      "type": "constructor"
    },
    {
      "inputs": [],
      "name": "BookHasOwner",
      "type": "error"
    },
    {
      "inputs": [],
      "name": "InvalidState",
      "type": "error"
    },
    {
      "inputs": [],
      "name": "OnlyOwner",
      "type": "error"
    },
    {
      "inputs": [],
      "name": "OrderIsNotCreated",
      "type": "error"
    },
    {
      "inputs": [],
      "name": "SenderIsNotBookOwner",
      "type": "error"
    },
    {
      "inputs": [],
      "name": "isStopped",
      "outputs": [
        {
          "internalType": "bool",
          "name": "",
          "type": "bool"
        }
      ],
      "stateMutability": "view",
      "type": "function",
      "constant": true
    },
    {
      "stateMutability": "payable",
      "type": "receive",
      "payable": true
    },
    {
      "inputs": [
        {
          "internalType": "uint256",
          "name": "amount",
          "type": "uint256"
        }
      ],
      "name": "withdraw",
      "outputs": [],
      "stateMutability": "nonpayable",
      "type": "function"
    },
    {
      "inputs": [],
      "name": "withdrawAll",
      "outputs": [],
      "stateMutability": "nonpayable",
      "type": "function"
    },
    {
      "inputs": [],
      "name": "selfDestruct",
      "outputs": [],
      "stateMutability": "nonpayable",
      "type": "function"
    },
    {
      "inputs": [],
      "name": "stopContract",
      "outputs": [],
      "stateMutability": "nonpayable",
      "type": "function"
    },
    {
      "inputs": [],
      "name": "restartContract",
      "outputs": [],
      "stateMutability": "nonpayable",
      "type": "function"
    },
    {
      "inputs": [
        {
          "internalType": "bytes16",
          "name": "bookId",
          "type": "bytes16"
        },
        {
          "internalType": "bytes32",
          "name": "proof",
          "type": "bytes32"
        }
      ],
      "name": "purchaseBook",
      "outputs": [],
      "stateMutability": "payable",
      "type": "function",
      "payable": true
    },
    {
      "inputs": [
        {
          "internalType": "bytes32",
          "name": "bookHash",
          "type": "bytes32"
        }
      ],
      "name": "repurchaseBook",
      "outputs": [],
      "stateMutability": "payable",
      "type": "function",
      "payable": true
    },
    {
      "inputs": [
        {
          "internalType": "bytes32",
          "name": "bookHash",
          "type": "bytes32"
        }
      ],
      "name": "activateOrder",
      "outputs": [],
      "stateMutability": "nonpayable",
      "type": "function"
    },
    {
      "inputs": [
        {
          "internalType": "bytes32",
          "name": "bookHash",
          "type": "bytes32"
        }
      ],
      "name": "deactivateOrder",
      "outputs": [],
      "stateMutability": "nonpayable",
      "type": "function"
    },
    {
      "inputs": [
        {
          "internalType": "address",
          "name": "newOwner",
          "type": "address"
        }
      ],
      "name": "transferOwnership",
      "outputs": [],
      "stateMutability": "nonpayable",
      "type": "function"
    },
    {
      "inputs": [],
      "name": "getOrderCount",
      "outputs": [
        {
          "internalType": "uint256",
          "name": "",
          "type": "uint256"
        }
      ],
      "stateMutability": "view",
      "type": "function",
      "constant": true
    },
    {
      "inputs": [
        {
          "internalType": "uint256",
          "name": "index",
          "type": "uint256"
        }
      ],
      "name": "getBookHashAtIndex",
      "outputs": [
        {
          "internalType": "bytes32",
          "name": "",
          "type": "bytes32"
        }
      ],
      "stateMutability": "view",
      "type": "function",
      "constant": true
    },
    {
      "inputs": [
        {
          "internalType": "bytes32",
          "name": "bookHash",
          "type": "bytes32"
        }
      ],
      "name": "getBookByHash",
      "outputs": [
        {
          "components": [
            {
              "internalType": "uint256",
              "name": "id",
              "type": "uint256"
            },
            {
              "internalType": "uint256",
              "name": "price",
              "type": "uint256"
            },
            {
              "internalType": "bytes32",
              "name": "proof",
              "type": "bytes32"
            },
            {
              "internalType": "address",
              "name": "owner",
              "type": "address"
            },
            {
              "internalType": "enum BookMarketplace.State",
              "name": "state",
              "type": "uint8"
            }
          ],
          "internalType": "struct BookMarketplace.Book",
          "name": "",
          "type": "tuple"
        }
      ],
      "stateMutability": "view",
      "type": "function",
      "constant": true
    },
    {
      "inputs": [],
      "name": "getContractOwner",
      "outputs": [
        {
          "internalType": "address",
          "name": "",
          "type": "address"
        }
      ],
      "stateMutability": "view",
      "type": "function",
      "constant": true
    }
  ],
  "bytecode": "0x608060405260008060006101000a81548160ff02191690831515021790555034801561002a57600080fd5b5061003a3361003f60201b60201c565b610083565b80600460006101000a81548173ffffffffffffffffffffffffffffffffffffffff021916908373ffffffffffffffffffffffffffffffffffffffff16021790555050565b6117d7806100926000396000f3fe6080604052600436106100ec5760003560e01c806367d98f951161008a5780639cb8a26a116100595780639cb8a26a146102a6578063cb94fe0c146102bd578063eda452d0146102d9578063f2fde38b14610302576100f3565b806367d98f951461020b578063853828b6146102485780638566c6701461025f5780638d0a5fbb1461027b576100f3565b80633f683b6a116100c65780633f683b6a1461014f578063442890d51461017a578063549eded0146101a5578063558cc06a146101ce576100f3565b806312253a6c146100f85780632e1a7d4d1461010f57806330a52d5b14610138576100f3565b366100f357005b600080fd5b34801561010457600080fd5b5061010d61032b565b005b34801561011b57600080fd5b50610136600480360381019061013191906111d8565b6103b3565b005b34801561014457600080fd5b5061014d6104f1565b005b34801561015b57600080fd5b50610164610579565b6040516101719190611220565b60405180910390f35b34801561018657600080fd5b5061018f61058a565b60405161019c919061127c565b60405180910390f35b3480156101b157600080fd5b506101cc60048036038101906101c791906112cd565b6105b4565b005b3480156101da57600080fd5b506101f560048036038101906101f091906112cd565b61080d565b6040516102029190611406565b60405180910390f35b34801561021757600080fd5b50610232600480360381019061022d91906111d8565b6108e9565b60405161023f9190611430565b60405180910390f35b34801561025457600080fd5b5061025d610906565b005b610279600480360381019061027491906114a3565b610a5a565b005b34801561028757600080fd5b50610290610c13565b60405161029d91906114f2565b60405180910390f35b3480156102b257600080fd5b506102bb610c1d565b005b6102d760048036038101906102d291906112cd565b610cdb565b005b3480156102e557600080fd5b5061030060048036038101906102fb91906112cd565b610e30565b005b34801561030e57600080fd5b5061032960048036038101906103249190611539565b610faa565b005b61033361058a565b73ffffffffffffffffffffffffffffffffffffffff163373ffffffffffffffffffffffffffffffffffffffff1614610397576040517f5fc483c500000000000000000000000000000000000000000000000000000000815260040160405180910390fd5b60016000806101000a81548160ff021916908315150217905550565b6103bb61058a565b73ffffffffffffffffffffffffffffffffffffffff163373ffffffffffffffffffffffffffffffffffffffff161461041f576040517f5fc483c500000000000000000000000000000000000000000000000000000000815260040160405180910390fd5b6000600460009054906101000a900473ffffffffffffffffffffffffffffffffffffffff1673ffffffffffffffffffffffffffffffffffffffff168260405161046790611597565b60006040518083038185875af1925050503d80600081146104a4576040519150601f19603f3d011682016040523d82523d6000602084013e6104a9565b606091505b50509050806104ed576040517f08c379a00000000000000000000000000000000000000000000000000000000081526004016104e490611609565b60405180910390fd5b5050565b6104f961058a565b73ffffffffffffffffffffffffffffffffffffffff163373ffffffffffffffffffffffffffffffffffffffff161461055d576040517f5fc483c500000000000000000000000000000000000000000000000000000000815260040160405180910390fd5b60008060006101000a81548160ff021916908315150217905550565b60008054906101000a900460ff1681565b6000600460009054906101000a900473ffffffffffffffffffffffffffffffffffffffff16905090565b60008054906101000a900460ff16156105cc57600080fd5b6105d461058a565b73ffffffffffffffffffffffffffffffffffffffff163373ffffffffffffffffffffffffffffffffffffffff1614610638576040517f5fc483c500000000000000000000000000000000000000000000000000000000815260040160405180910390fd5b61064181611022565b610677576040517facf8710800000000000000000000000000000000000000000000000000000000815260040160405180910390fd5b6000600160008381526020019081526020016000209050600060028111156106a2576106a1611327565b5b8160030160149054906101000a900460ff1660028111156106c6576106c5611327565b5b146106fd576040517fbaf3f0f700000000000000000000000000000000000000000000000000000000815260040160405180910390fd5b60008160030160009054906101000a900473ffffffffffffffffffffffffffffffffffffffff1673ffffffffffffffffffffffffffffffffffffffff16826001015460405161074b90611597565b60006040518083038185875af1925050503d8060008114610788576040519150601f19603f3d011682016040523d82523d6000602084013e61078d565b606091505b50509050806107d1576040517f08c379a00000000000000000000000000000000000000000000000000000000081526004016107c890611675565b60405180910390fd5b60028260030160146101000a81548160ff021916908360028111156107f9576107f8611327565b5b021790555060008260010181905550505050565b610815611143565b600160008381526020019081526020016000206040518060a00160405290816000820154815260200160018201548152602001600282015481526020016003820160009054906101000a900473ffffffffffffffffffffffffffffffffffffffff1673ffffffffffffffffffffffffffffffffffffffff1673ffffffffffffffffffffffffffffffffffffffff1681526020016003820160149054906101000a900460ff1660028111156108cc576108cb611327565b5b60028111156108de576108dd611327565b5b815250509050919050565b600060026000838152602001908152602001600020549050919050565b60008054906101000a900460ff1661091d57600080fd5b61092561058a565b73ffffffffffffffffffffffffffffffffffffffff163373ffffffffffffffffffffffffffffffffffffffff1614610989576040517f5fc483c500000000000000000000000000000000000000000000000000000000815260040160405180910390fd5b6000600460009054906101000a900473ffffffffffffffffffffffffffffffffffffffff1673ffffffffffffffffffffffffffffffffffffffff16476040516109d190611597565b60006040518083038185875af1925050503d8060008114610a0e576040519150601f19603f3d011682016040523d82523d6000602084013e610a13565b606091505b5050905080610a57576040517f08c379a0000000000000000000000000000000000000000000000000000000008152600401610a4e90611609565b60405180910390fd5b50565b60008054906101000a900460ff1615610a7257600080fd5b60008233604051602001610a879291906116fe565b604051602081830303815290604052805190602001209050610aa881611091565b15610adf576040517f979b93f000000000000000000000000000000000000000000000000000000000815260040160405180910390fd5b600060036000815480929190610af490611759565b9190505590508160026000838152602001908152602001600020819055506040518060a001604052808281526020013481526020018481526020013373ffffffffffffffffffffffffffffffffffffffff16815260200160006002811115610b5f57610b5e611327565b5b8152506001600084815260200190815260200160002060008201518160000155602082015181600101556040820151816002015560608201518160030160006101000a81548173ffffffffffffffffffffffffffffffffffffffff021916908373ffffffffffffffffffffffffffffffffffffffff16021790555060808201518160030160146101000a81548160ff02191690836002811115610c0557610c04611327565b5b021790555090505050505050565b6000600354905090565b60008054906101000a900460ff16610c3457600080fd5b610c3c61058a565b73ffffffffffffffffffffffffffffffffffffffff163373ffffffffffffffffffffffffffffffffffffffff1614610ca0576040517f5fc483c500000000000000000000000000000000000000000000000000000000815260040160405180910390fd5b600460009054906101000a900473ffffffffffffffffffffffffffffffffffffffff1673ffffffffffffffffffffffffffffffffffffffff16ff5b60008054906101000a900460ff1615610cf357600080fd5b610cfc81611022565b610d32576040517facf8710800000000000000000000000000000000000000000000000000000000815260040160405180910390fd5b610d3b81611091565b610d71576040517fdde8986000000000000000000000000000000000000000000000000000000000815260040160405180910390fd5b6000600160008381526020019081526020016000209050600280811115610d9b57610d9a611327565b5b8160030160149054906101000a900460ff166002811115610dbf57610dbe611327565b5b14610df6576040517fbaf3f0f700000000000000000000000000000000000000000000000000000000815260040160405180910390fd5b60008160030160146101000a81548160ff02191690836002811115610e1e57610e1d611327565b5b02179055503481600101819055505050565b60008054906101000a900460ff1615610e4857600080fd5b610e5061058a565b73ffffffffffffffffffffffffffffffffffffffff163373ffffffffffffffffffffffffffffffffffffffff1614610eb4576040517f5fc483c500000000000000000000000000000000000000000000000000000000815260040160405180910390fd5b610ebd81611022565b610ef3576040517facf8710800000000000000000000000000000000000000000000000000000000815260040160405180910390fd5b600060016000838152602001908152602001600020905060006002811115610f1e57610f1d611327565b5b8160030160149054906101000a900460ff166002811115610f4257610f41611327565b5b14610f79576040517fbaf3f0f700000000000000000000000000000000000000000000000000000000815260040160405180910390fd5b60018160030160146101000a81548160ff02191690836002811115610fa157610fa0611327565b5b02179055505050565b610fb261058a565b73ffffffffffffffffffffffffffffffffffffffff163373ffffffffffffffffffffffffffffffffffffffff1614611016576040517f5fc483c500000000000000000000000000000000000000000000000000000000815260040160405180910390fd5b61101f816110ff565b50565b60008073ffffffffffffffffffffffffffffffffffffffff166001600084815260200190815260200160002060030160009054906101000a900473ffffffffffffffffffffffffffffffffffffffff1673ffffffffffffffffffffffffffffffffffffffff1614159050919050565b60003373ffffffffffffffffffffffffffffffffffffffff166001600084815260200190815260200160002060030160009054906101000a900473ffffffffffffffffffffffffffffffffffffffff1673ffffffffffffffffffffffffffffffffffffffff16149050919050565b80600460006101000a81548173ffffffffffffffffffffffffffffffffffffffff021916908373ffffffffffffffffffffffffffffffffffffffff16021790555050565b6040518060a00160405280600081526020016000815260200160008019168152602001600073ffffffffffffffffffffffffffffffffffffffff1681526020016000600281111561119757611196611327565b5b81525090565b600080fd5b6000819050919050565b6111b5816111a2565b81146111c057600080fd5b50565b6000813590506111d2816111ac565b92915050565b6000602082840312156111ee576111ed61119d565b5b60006111fc848285016111c3565b91505092915050565b60008115159050919050565b61121a81611205565b82525050565b60006020820190506112356000830184611211565b92915050565b600073ffffffffffffffffffffffffffffffffffffffff82169050919050565b60006112668261123b565b9050919050565b6112768161125b565b82525050565b6000602082019050611291600083018461126d565b92915050565b6000819050919050565b6112aa81611297565b81146112b557600080fd5b50565b6000813590506112c7816112a1565b92915050565b6000602082840312156112e3576112e261119d565b5b60006112f1848285016112b8565b91505092915050565b611303816111a2565b82525050565b61131281611297565b82525050565b6113218161125b565b82525050565b7f4e487b7100000000000000000000000000000000000000000000000000000000600052602160045260246000fd5b6003811061136757611366611327565b5b50565b600081905061137882611356565b919050565b60006113888261136a565b9050919050565b6113988161137d565b82525050565b60a0820160008201516113b460008501826112fa565b5060208201516113c760208501826112fa565b5060408201516113da6040850182611309565b5060608201516113ed6060850182611318565b506080820151611400608085018261138f565b50505050565b600060a08201905061141b600083018461139e565b92915050565b61142a81611297565b82525050565b60006020820190506114456000830184611421565b92915050565b60007fffffffffffffffffffffffffffffffff0000000000000000000000000000000082169050919050565b6114808161144b565b811461148b57600080fd5b50565b60008135905061149d81611477565b92915050565b600080604083850312156114ba576114b961119d565b5b60006114c88582860161148e565b92505060206114d9858286016112b8565b9150509250929050565b6114ec816111a2565b82525050565b600060208201905061150760008301846114e3565b92915050565b6115168161125b565b811461152157600080fd5b50565b6000813590506115338161150d565b92915050565b60006020828403121561154f5761154e61119d565b5b600061155d84828501611524565b91505092915050565b600081905092915050565b50565b6000611581600083611566565b915061158c82611571565b600082019050919050565b60006115a282611574565b9150819050919050565b600082825260208201905092915050565b7f5472616e73666572206661696c65640000000000000000000000000000000000600082015250565b60006115f3600f836115ac565b91506115fe826115bd565b602082019050919050565b60006020820190508181036000830152611622816115e6565b9050919050565b7f5472616e73666572206661696c65642100000000000000000000000000000000600082015250565b600061165f6010836115ac565b915061166a82611629565b602082019050919050565b6000602082019050818103600083015261168e81611652565b9050919050565b6000819050919050565b6116b06116ab8261144b565b611695565b82525050565b60008160601b9050919050565b60006116ce826116b6565b9050919050565b60006116e0826116c3565b9050919050565b6116f86116f38261125b565b6116d5565b82525050565b600061170a828561169f565b60108201915061171a82846116e7565b6014820191508190509392505050565b7f4e487b7100000000000000000000000000000000000000000000000000000000600052601160045260246000fd5b6000611764826111a2565b91507fffffffffffffffffffffffffffffffffffffffffffffffffffffffffffffffff82036117965761179561172a565b5b60018201905091905056fea2646970667358221220fbf3a0548418ab40b9a04c0cc87b83a30ba9142d645fe0f0df3709699f6602e664736f6c634300080d0033",
  "immutableReferences": {},
  "source": "//SPDX-License-Identifier: MIT\r\npragma solidity >=0.4.22 <0.9.0;\r\n\r\ncontract BookMarketplace {\r\n\r\n    enum State{\r\n        Purchased,\r\n        Activated,\r\n        Deactivated\r\n    }\r\n\r\n    struct Book {\r\n        uint id; \r\n        uint price;\r\n        bytes32 proof;\r\n        address owner;\r\n        State state; \r\n    }\r\n\r\n    bool public isStopped = false;\r\n\r\n    // mapping of bookHash to Book Data\r\n    mapping(bytes32 => Book) private ownedBooks;\r\n\r\n    //mapping of bookId to book Hash\r\n    mapping(uint => bytes32) private ownedBookHash;\r\n\r\n    // number of all Books + id of the Books\r\n    uint private totalOwnedBooks;\r\n\r\n    //admin of the contract\r\n    address payable private owner;\r\n\r\n  constructor() {\r\n    setContractOwner(msg.sender);\r\n  }\r\n\r\n    /// Book has invalid state!\r\n    error InvalidState();\r\n\r\n    /// Order has not be created successfully\r\n    error OrderIsNotCreated();\r\n\r\n    /// Book already owned!\r\n    error BookHasOwner();\r\n\r\n    /// Sender is not owner of the book!\r\n    error SenderIsNotBookOwner();\r\n\r\n    /// Only owner has access!\r\n    error OnlyOwner();\r\n\r\n\r\n    modifier onlyOwner() {\r\n        if (msg.sender != getContractOwner()){\r\n            revert OnlyOwner();\r\n        }\r\n        _;\r\n    }\r\n\r\n    modifier onlyIfNotStopped(){\r\n        require(!isStopped);\r\n        _;\r\n    }\r\n\r\n    modifier onlyIfStopped(){\r\n        require(isStopped);\r\n        _;\r\n    }\r\n\r\n    // allows money to be transfered to smart contract\r\n    receive() external payable {} \r\n\r\n    // allow contract owner only to withdraw funds from smart contract\r\n    function withdraw(uint amount) external onlyOwner{\r\n       (bool success, ) = owner.call{value: amount}(\"\");\r\n       require(success, \"Transfer failed\");\r\n    }\r\n\r\n    // allow contract owner to withdraw all funds from contract only when contract is stopped\r\n    // in case of emergency\r\n    function withdrawAll() external onlyIfStopped onlyOwner{\r\n       (bool success, ) = owner.call{value: address(this).balance}(\"\");\r\n       require(success, \"Transfer failed\");\r\n    }\r\n\r\n    // destroy smart contract from blockchain and transfer all remaining Ether in contract to owner.\r\n    function selfDestruct() external onlyIfStopped onlyOwner{\r\n        selfdestruct(owner);\r\n    }\r\n\r\n\r\n    function stopContract() external onlyOwner{\r\n        isStopped = true;\r\n    }\r\n\r\n     function restartContract() external onlyOwner{\r\n        isStopped = false;\r\n    }\r\n\r\n    function purchaseBook(bytes16 bookId, bytes32 proof) external onlyIfNotStopped payable{\r\n        bytes32 bookHash = keccak256(abi.encodePacked(bookId, msg.sender));\r\n        \r\n        if (hasBookOwnership(bookHash)) {\r\n            revert BookHasOwner();\r\n        }\r\n        \r\n        uint id = totalOwnedBooks++;\r\n\r\n        ownedBookHash[id] = bookHash;\r\n        ownedBooks[bookHash] = Book({\r\n            id: id,\r\n            price: msg.value,\r\n            proof: proof,\r\n            state: State.Purchased,\r\n            owner: msg.sender\r\n        });\r\n    }\r\n\r\n    function repurchaseBook(bytes32 bookHash) external onlyIfNotStopped payable {\r\n        if (!isOrderCreated(bookHash)) {\r\n            revert OrderIsNotCreated();\r\n        }\r\n\r\n        if (!hasBookOwnership(bookHash)) {\r\n            revert SenderIsNotBookOwner();\r\n        }\r\n\r\n        Book storage book = ownedBooks[bookHash];\r\n\r\n        if (book.state != State.Deactivated) {\r\n            revert InvalidState();\r\n        }\r\n\r\n        book.state = State.Purchased;\r\n        book.price = msg.value;\r\n    }\r\n            \r\n\r\n    function activateOrder(bytes32 bookHash)external onlyIfNotStopped onlyOwner{\r\n        if(!isOrderCreated(bookHash)){\r\n            revert OrderIsNotCreated();\r\n        }\r\n        Book storage book = ownedBooks[bookHash];\r\n        if (book.state != State.Purchased){\r\n            revert InvalidState();\r\n        }\r\n        book.state = State.Activated;\r\n    }\r\n\r\n\r\n    function deactivateOrder(bytes32 bookHash)external onlyIfNotStopped onlyOwner{\r\n        if (!isOrderCreated(bookHash)) {\r\n            revert OrderIsNotCreated();\r\n            }\r\n            \r\n        Book storage book = ownedBooks[bookHash];\r\n\r\n        if (book.state != State.Purchased) {\r\n            revert InvalidState();\r\n        }\r\n\r\n        (bool success, ) = book.owner.call{value: book.price}(\"\");\r\n        require(success, \"Transfer failed!\");\r\n\r\n        book.state = State.Deactivated;\r\n        book.price = 0;\r\n    }\r\n\r\n\r\n    function transferOwnership(address newOwner) external onlyOwner{\r\n        setContractOwner(newOwner);\r\n    }\r\n\r\n    function getOrderCount() external view returns(uint){\r\n        return totalOwnedBooks;\r\n    }\r\n\r\n    function getBookHashAtIndex(uint index) external view returns(bytes32){\r\n        return ownedBookHash[index];\r\n    }\r\n    \r\n    function getBookByHash(bytes32 bookHash) external view returns(Book memory){\r\n        return ownedBooks[bookHash];\r\n    }\r\n\r\n    function getContractOwner() public view returns(address){\r\n        return owner;\r\n    }\r\n\r\n    function hasBookOwnership(bytes32 bookHash) private view returns(bool){\r\n        return ownedBooks[bookHash].owner == msg.sender;\r\n    }\r\n\r\n    function isOrderCreated(bytes32 bookHash) private view returns(bool){\r\n        return ownedBooks[bookHash].owner != 0x0000000000000000000000000000000000000000;\r\n    }\r\n\r\n\r\n    function setContractOwner(address newOwner) private{\r\n        owner = payable(newOwner);\r\n\r\n    }\r\n}",
  "sourcePath": "C:\\Users\\joejp\\FinalYearProject\\Bookstore-eth\\contracts\\BookMarketplace.sol",
  "compiler": {
    "name": "solc",
    "version": "0.8.13+commit.abaa5c0e.Emscripten.clang"
  },
  "schemaVersion": "3.4.7",
  "updatedAt": "2022-05-10T13:27:08.119Z",
  "networkType": "ethereum",
  "devdoc": {
    "kind": "dev",
    "methods": {},
    "version": 1
  },
  "userdoc": {
    "errors": {
      "BookHasOwner()": [
        {
          "notice": "Book already owned!"
        }
      ],
      "InvalidState()": [
        {
          "notice": "Book has invalid state!"
        }
      ],
      "OnlyOwner()": [
        {
          "notice": "Only owner has access!"
        }
      ],
      "OrderIsNotCreated()": [
        {
          "notice": "Order has not be created successfully"
        }
      ],
      "SenderIsNotBookOwner()": [
        {
          "notice": "Sender is not owner of the book!"
        }
      ]
    },
    "kind": "user",
    "methods": {},
    "version": 1
  }
}